{
  "contractName": "Lottery",
  "abi": [
    {
      "inputs": [],
      "stateMutability": "nonpayable",
      "type": "constructor"
    },
    {
      "anonymous": false,
      "inputs": [
        {
          "indexed": false,
          "internalType": "uint256",
          "name": "index",
          "type": "uint256"
        },
        {
          "indexed": false,
          "internalType": "address",
          "name": "bettor",
          "type": "address"
        },
        {
          "indexed": false,
          "internalType": "uint256",
          "name": "amount",
          "type": "uint256"
        },
        {
          "indexed": false,
          "internalType": "bytes1",
          "name": "challenges",
          "type": "bytes1"
        },
        {
          "indexed": false,
          "internalType": "uint256",
          "name": "answerBlockNumber",
          "type": "uint256"
        }
      ],
      "name": "BET",
      "type": "event"
    },
    {
      "anonymous": false,
      "inputs": [
        {
          "indexed": false,
          "internalType": "uint256",
          "name": "index",
          "type": "uint256"
        },
        {
          "indexed": false,
          "internalType": "address",
          "name": "bettor",
          "type": "address"
        },
        {
          "indexed": false,
          "internalType": "uint256",
          "name": "amount",
          "type": "uint256"
        },
        {
          "indexed": false,
          "internalType": "bytes1",
          "name": "challenges",
          "type": "bytes1"
        },
        {
          "indexed": false,
          "internalType": "bytes1",
          "name": "answer",
          "type": "bytes1"
        },
        {
          "indexed": false,
          "internalType": "uint256",
          "name": "answerBlockNumver",
          "type": "uint256"
        }
      ],
      "name": "DRAW",
      "type": "event"
    },
    {
      "anonymous": false,
      "inputs": [
        {
          "indexed": false,
          "internalType": "uint256",
          "name": "index",
          "type": "uint256"
        },
        {
          "indexed": false,
          "internalType": "address",
          "name": "bettor",
          "type": "address"
        },
        {
          "indexed": false,
          "internalType": "uint256",
          "name": "amount",
          "type": "uint256"
        },
        {
          "indexed": false,
          "internalType": "bytes1",
          "name": "challenges",
          "type": "bytes1"
        },
        {
          "indexed": false,
          "internalType": "bytes1",
          "name": "answer",
          "type": "bytes1"
        },
        {
          "indexed": false,
          "internalType": "uint256",
          "name": "answerBlockNumver",
          "type": "uint256"
        }
      ],
      "name": "FAIL",
      "type": "event"
    },
    {
      "anonymous": false,
      "inputs": [
        {
          "indexed": false,
          "internalType": "uint256",
          "name": "index",
          "type": "uint256"
        },
        {
          "indexed": false,
          "internalType": "address",
          "name": "bettor",
          "type": "address"
        },
        {
          "indexed": false,
          "internalType": "uint256",
          "name": "amount",
          "type": "uint256"
        },
        {
          "indexed": false,
          "internalType": "bytes1",
          "name": "challenges",
          "type": "bytes1"
        },
        {
          "indexed": false,
          "internalType": "uint256",
          "name": "answerBlockNumver",
          "type": "uint256"
        }
      ],
      "name": "REFUND",
      "type": "event"
    },
    {
      "anonymous": false,
      "inputs": [
        {
          "indexed": false,
          "internalType": "uint256",
          "name": "index",
          "type": "uint256"
        },
        {
          "indexed": false,
          "internalType": "address",
          "name": "bettor",
          "type": "address"
        },
        {
          "indexed": false,
          "internalType": "uint256",
          "name": "amount",
          "type": "uint256"
        },
        {
          "indexed": false,
          "internalType": "bytes1",
          "name": "challenges",
          "type": "bytes1"
        },
        {
          "indexed": false,
          "internalType": "bytes1",
          "name": "answer",
          "type": "bytes1"
        },
        {
          "indexed": false,
          "internalType": "uint256",
          "name": "answerBlockNumver",
          "type": "uint256"
        }
      ],
      "name": "WIN",
      "type": "event"
    },
    {
      "inputs": [],
      "name": "answerForTest",
      "outputs": [
        {
          "internalType": "bytes32",
          "name": "",
          "type": "bytes32"
        }
      ],
      "stateMutability": "view",
      "type": "function",
      "constant": true
    },
    {
      "inputs": [],
      "name": "owner",
      "outputs": [
        {
          "internalType": "address payable",
          "name": "",
          "type": "address"
        }
      ],
      "stateMutability": "view",
      "type": "function",
      "constant": true
    },
    {
      "inputs": [],
      "name": "getPot",
      "outputs": [
        {
          "internalType": "uint256",
          "name": "pot",
          "type": "uint256"
        }
      ],
      "stateMutability": "view",
      "type": "function",
      "constant": true
    },
    {
      "inputs": [
        {
          "internalType": "bytes1",
          "name": "challenges",
          "type": "bytes1"
        }
      ],
      "name": "betAndDistribute",
      "outputs": [
        {
          "internalType": "bool",
          "name": "result",
          "type": "bool"
        }
      ],
      "stateMutability": "payable",
      "type": "function",
      "payable": true
    },
    {
      "inputs": [
        {
          "internalType": "bytes1",
          "name": "challenges",
          "type": "bytes1"
        }
      ],
      "name": "bet",
      "outputs": [
        {
          "internalType": "bool",
          "name": "result",
          "type": "bool"
        }
      ],
      "stateMutability": "payable",
      "type": "function",
      "payable": true
    },
    {
      "inputs": [],
      "name": "Distribute",
      "outputs": [],
      "stateMutability": "nonpayable",
      "type": "function"
    },
    {
      "inputs": [
        {
          "internalType": "bytes32",
          "name": "answer",
          "type": "bytes32"
        }
      ],
      "name": "setAnswerForTest",
      "outputs": [
        {
          "internalType": "bool",
          "name": "result",
          "type": "bool"
        }
      ],
      "stateMutability": "nonpayable",
      "type": "function"
    },
    {
      "inputs": [
        {
          "internalType": "bytes1",
          "name": "challenges",
          "type": "bytes1"
        },
        {
          "internalType": "bytes32",
          "name": "answer",
          "type": "bytes32"
        }
      ],
      "name": "isMatch",
      "outputs": [
        {
          "internalType": "enum Lottery.BettingResult",
          "name": "",
          "type": "uint8"
        }
      ],
      "stateMutability": "pure",
      "type": "function",
      "constant": true
    },
    {
      "inputs": [
        {
          "internalType": "uint256",
          "name": "index",
          "type": "uint256"
        }
      ],
      "name": "getBetInfo",
      "outputs": [
        {
          "internalType": "uint256",
          "name": "answerBlockNumber",
          "type": "uint256"
        },
        {
          "internalType": "address",
          "name": "bettor",
          "type": "address"
        },
        {
          "internalType": "bytes1",
          "name": "challenges",
          "type": "bytes1"
        }
      ],
      "stateMutability": "view",
      "type": "function",
      "constant": true
    }
  ],
  "bytecode": "0x60806040526000600560006101000a81548160ff02191690831515021790555034801561002b57600080fd5b5033600360006101000a81548173ffffffffffffffffffffffffffffffffffffffff021916908373ffffffffffffffffffffffffffffffffffffffff1602179055506115018061007c6000396000f3fe6080604052600436106100865760003560e01c806384f7e4f01161005957806384f7e4f0146101ed5780638da5cb5b1461021857806399a167d71461026f578063e16ea857146102f8578063f4b46f5b1461036057610086565b8063403c9fa81461008b5780637009fa36146100b657806379141f80146101095780637c32ae1b146101d6575b600080fd5b34801561009757600080fd5b506100a06103c8565b6040518082815260200191505060405180910390f35b3480156100c257600080fd5b506100ef600480360360208110156100d957600080fd5b81019080803590602001909291905050506103d2565b604051808215151515815260200191505060405180910390f35b34801561011557600080fd5b506101426004803603602081101561012c57600080fd5b810190808035906020019092919050505061048a565b604051808481526020018373ffffffffffffffffffffffffffffffffffffffff1673ffffffffffffffffffffffffffffffffffffffff168152602001827effffffffffffffffffffffffffffffffffffffffffffffffffffffffffffff19167effffffffffffffffffffffffffffffffffffffffffffffffffffffffffffff19168152602001935050505060405180910390f35b3480156101e257600080fd5b506101eb61058f565b005b3480156101f957600080fd5b50610202610c6a565b6040518082815260200191505060405180910390f35b34801561022457600080fd5b5061022d610c70565b604051808273ffffffffffffffffffffffffffffffffffffffff1673ffffffffffffffffffffffffffffffffffffffff16815260200191505060405180910390f35b34801561027b57600080fd5b506102d46004803603604081101561029257600080fd5b8101908080357effffffffffffffffffffffffffffffffffffffffffffffffffffffffffffff1916906020019092919080359060200190929190505050610c96565b604051808260028111156102e457fe5b60ff16815260200191505060405180910390f35b6103466004803603602081101561030e57600080fd5b8101908080357effffffffffffffffffffffffffffffffffffffffffffffffffffffffffffff19169060200190929190505050610f71565b604051808215151515815260200191505060405180910390f35b6103ae6004803603602081101561037657600080fd5b8101908080357effffffffffffffffffffffffffffffffffffffffffffffffffffffffffffff19169060200190929190505050610f8e565b604051808215151515815260200191505060405180910390f35b6000600454905090565b6000600360009054906101000a900473ffffffffffffffffffffffffffffffffffffffff1673ffffffffffffffffffffffffffffffffffffffff163373ffffffffffffffffffffffffffffffffffffffff161461047a576040517f08c379a000000000000000000000000000000000000000000000000000000000815260040180806020018281038252602a8152602001806114a2602a913960400191505060405180910390fd5b8160068190555060019050919050565b6000806000610497611448565b60026000868152602001908152602001600020604051806060016040529081600082015481526020016001820160009054906101000a900473ffffffffffffffffffffffffffffffffffffffff1673ffffffffffffffffffffffffffffffffffffffff1673ffffffffffffffffffffffffffffffffffffffff1681526020016001820160149054906101000a900460f81b7effffffffffffffffffffffffffffffffffffffffffffffffffffffffffffff19167effffffffffffffffffffffffffffffffffffffffffffffffffffffffffffff1916815250509050806000015193508060200151925080604001519150509193909250565b60008061059a611448565b600060015493505b600054841015610c5d5760026000858152602001908152602001600020604051806060016040529081600082015481526020016001820160009054906101000a900473ffffffffffffffffffffffffffffffffffffffff1673ffffffffffffffffffffffffffffffffffffffff1673ffffffffffffffffffffffffffffffffffffffff1681526020016001820160149054906101000a900460f81b7effffffffffffffffffffffffffffffffffffffffffffffffffffffffffffff19167effffffffffffffffffffffffffffffffffffffffffffffffffffffffffffff1916815250509150610694826000015161115f565b905060008060028111156106a457fe5b8260028111156106b057fe5b1415610b175760006106c584600001516111af565b90506106d5846040015182610c96565b9150600160028111156106e457fe5b8260028111156106f057fe5b14156108495761070f84602001516611c37937e08000600454016111d7565b945060006004819055507f8219079e2d6c1192fb0ff7f78e6faaf5528ad6687e69749205d87bd4b156912b8685602001518787604001518560006020811061075357fe5b1a60f81b8960000151604051808781526020018673ffffffffffffffffffffffffffffffffffffffff1673ffffffffffffffffffffffffffffffffffffffff168152602001858152602001847effffffffffffffffffffffffffffffffffffffffffffffffffffffffffffff19167effffffffffffffffffffffffffffffffffffffffffffffffffffffffffffff19168152602001837effffffffffffffffffffffffffffffffffffffffffffffffffffffffffffff19167effffffffffffffffffffffffffffffffffffffffffffffffffffffffffffff19168152602001828152602001965050505050505060405180910390a15b6000600281111561085657fe5b82600281111561086257fe5b14156109b0576611c37937e080006004600082825401925050819055507f3b19d607433249d2ebc766ae82ca3848e9c064f1febb5147bc6e5b21d0adebc586856020015160008760400151856000602081106108ba57fe5b1a60f81b8960000151604051808781526020018673ffffffffffffffffffffffffffffffffffffffff1673ffffffffffffffffffffffffffffffffffffffff168152602001858152602001847effffffffffffffffffffffffffffffffffffffffffffffffffffffffffffff19167effffffffffffffffffffffffffffffffffffffffffffffffffffffffffffff19168152602001837effffffffffffffffffffffffffffffffffffffffffffffffffffffffffffff19167effffffffffffffffffffffffffffffffffffffffffffffffffffffffffffff19168152602001828152602001965050505050505060405180910390a15b6002808111156109bc57fe5b8260028111156109c857fe5b1415610b15576109e384602001516611c37937e080006111d7565b94507f72ec2e949e4fad9380f9d5db3e2ed0e71cf22c51d8d66424508bdc761a3f4b0e86856020015187876040015185600060208110610a1f57fe5b1a60f81b8960000151604051808781526020018673ffffffffffffffffffffffffffffffffffffffff1673ffffffffffffffffffffffffffffffffffffffff168152602001858152602001847effffffffffffffffffffffffffffffffffffffffffffffffffffffffffffff19167effffffffffffffffffffffffffffffffffffffffffffffffffffffffffffff19168152602001837effffffffffffffffffffffffffffffffffffffffffffffffffffffffffffff19167effffffffffffffffffffffffffffffffffffffffffffffffffffffffffffff19168152602001828152602001965050505050505060405180910390a15b505b60016002811115610b2457fe5b826002811115610b3057fe5b1415610b3c5750610c5d565b600280811115610b4857fe5b826002811115610b5457fe5b1415610c4557610b6f83602001516611c37937e080006111d7565b93507f59c0185881271a0f53d43e6ab9310091408f9e0ff9ae2512613de800f26b8de48584602001518686604001518760000151604051808681526020018573ffffffffffffffffffffffffffffffffffffffff1673ffffffffffffffffffffffffffffffffffffffff168152602001848152602001837effffffffffffffffffffffffffffffffffffffffffffffffffffffffffffff19167effffffffffffffffffffffffffffffffffffffffffffffffffffffffffffff191681526020018281526020019550505050505060405180910390a15b610c4e856112a0565b505083806001019450506105a2565b8360018190555050505050565b60065481565b600360009054906101000a900473ffffffffffffffffffffffffffffffffffffffff1681565b6000808390506000849050600084600060208110610cb057fe5b1a60f81b9050600085600060208110610cc557fe5b1a60f81b90506004847effffffffffffffffffffffffffffffffffffffffffffffffffffffffffffff1916901c93506004847effffffffffffffffffffffffffffffffffffffffffffffffffffffffffffff1916901b93506004827effffffffffffffffffffffffffffffffffffffffffffffffffffffffffffff1916901c91506004827effffffffffffffffffffffffffffffffffffffffffffffffffffffffffffff1916901b91506004837effffffffffffffffffffffffffffffffffffffffffffffffffffffffffffff1916901b92506004837effffffffffffffffffffffffffffffffffffffffffffffffffffffffffffff1916901c92506004817effffffffffffffffffffffffffffffffffffffffffffffffffffffffffffff1916901b90506004817effffffffffffffffffffffffffffffffffffffffffffffffffffffffffffff1916901c9050837effffffffffffffffffffffffffffffffffffffffffffffffffffffffffffff1916827effffffffffffffffffffffffffffffffffffffffffffffffffffffffffffff1916148015610ea95750827effffffffffffffffffffffffffffffffffffffffffffffffffffffffffffff1916817effffffffffffffffffffffffffffffffffffffffffffffffffffffffffffff1916145b15610ebb576001945050505050610f6b565b837effffffffffffffffffffffffffffffffffffffffffffffffffffffffffffff1916827effffffffffffffffffffffffffffffffffffffffffffffffffffffffffffff19161480610f505750827effffffffffffffffffffffffffffffffffffffffffffffffffffffffffffff1916817effffffffffffffffffffffffffffffffffffffffffffffffffffffffffffff1916145b15610f62576002945050505050610f6b565b60009450505050505b92915050565b6000610f7c82610f8e565b50610f8561058f565b60019050919050565b60006611c37937e08000341461100c576040517f08c379a000000000000000000000000000000000000000000000000000000000815260040180806020018281038252600e8152602001807f6e6f7420656e6f7567682045544800000000000000000000000000000000000081525060200191505060405180910390fd5b61101582611304565b611087576040517f08c379a00000000000000000000000000000000000000000000000000000000081526004018080602001828103825260188152602001807f4661696c20746f20616464204e65772042657420496e666f000000000000000081525060200191505060405180910390fd5b7f100791de9f40bf2d56ffa6dc5597d2fd0b2703ea70bc7548cd74c04f5d215ab760016000540333348560034301604051808681526020018573ffffffffffffffffffffffffffffffffffffffff1673ffffffffffffffffffffffffffffffffffffffff168152602001848152602001837effffffffffffffffffffffffffffffffffffffffffffffffffffffffffffff19167effffffffffffffffffffffffffffffffffffffffffffffffffffffffffffff191681526020018281526020019550505050505060405180910390a160019050919050565b600081431180156111735750816101000143105b1561118157600090506111aa565b81431161119157600190506111aa565b610100820143106111a557600290506111aa565b600290505b919050565b6000600560009054906101000a900460ff166111cd576006546111d0565b81405b9050919050565b60008060009050600081840390508473ffffffffffffffffffffffffffffffffffffffff166108fc829081150290604051600060405180830381858888f1935050505015801561122b573d6000803e3d6000fd5b50600360009054906101000a900473ffffffffffffffffffffffffffffffffffffffff1673ffffffffffffffffffffffffffffffffffffffff166108fc839081150290604051600060405180830381858888f19350505050158015611294573d6000803e3d6000fd5b50809250505092915050565b6000600260008381526020019081526020016000206000808201600090556001820160006101000a81549073ffffffffffffffffffffffffffffffffffffffff02191690556001820160146101000a81549060ff0219169055505060019050919050565b600061130e611448565b33816020019073ffffffffffffffffffffffffffffffffffffffff16908173ffffffffffffffffffffffffffffffffffffffff1681525050600343018160000181815250508281604001907effffffffffffffffffffffffffffffffffffffffffffffffffffffffffffff191690817effffffffffffffffffffffffffffffffffffffffffffffffffffffffffffff1916815250508060026000805481526020019081526020016000206000820151816000015560208201518160010160006101000a81548173ffffffffffffffffffffffffffffffffffffffff021916908373ffffffffffffffffffffffffffffffffffffffff16021790555060408201518160010160146101000a81548160ff021916908360f81c021790555090505060008081548092919060010191905055506001915050919050565b604051806060016040528060008152602001600073ffffffffffffffffffffffffffffffffffffffff16815260200160007effffffffffffffffffffffffffffffffffffffffffffffffffffffffffffff19168152509056fe4f6e6c79206f776e65722063616e207365742074686520616e73776572206f662074657374206d6f6465a2646970667358221220a80bb2f726e0b306927ed8de17e010c20f4e20ec4aceda56b3d62b8fcc940b7d64736f6c63430006000033",
  "source": "pragma solidity >=0.4.22 <0.9.0;\n\ncontract Lottery {\n    struct BetInfo {\n        uint256 answerBlockNumber; // 맞추려고 하는 정답블럭(+3)의 주소\n        address payable bettor; // 정답을 맞췄으면 이 주소에 돈을 보낸다. = 돈을 보내려면 payable을 써줘야 돈이 감 = 근데 payable쓰니까 오류나서 지움(찾아보니 디폴트란다)\n        bytes1 challenges; // 정답이 들어옴\n    }\n\n    uint256 private _tail;\n    uint256 private _head;\n    mapping(uint256 => BetInfo) private _bets;\n\n    address payable public owner;\n\n    uint256 internal constant BLOCK_LIMIT = 256;\n    uint256 internal constant BET_BLOCK_INTERVAL = 3;\n    uint256 internal constant BET_AMOUNT = 5 * 10**15;\n\n    uint256 private _pot;\n    bool private _mode = false; // false =test mode , true = real block hash\n    bytes32 public answerForTest;\n    \n    enum BlockStatus { Checkable, NotRevealed, BlockLimitPassed }\n    enum BettingResult { Fail, Win, Draw }\n\n    event BET( uint256 index, address bettor, uint256 amount, bytes1 challenges, uint256 answerBlockNumber );\n    event WIN( uint256 index, address bettor, uint256 amount, bytes1 challenges, bytes1 answer, uint256 answerBlockNumver);\n    event FAIL( uint256 index, address bettor, uint256 amount, bytes1 challenges, bytes1 answer, uint256 answerBlockNumver);\n    event DRAW( uint256 index, address bettor, uint256 amount, bytes1 challenges, bytes1 answer, uint256 answerBlockNumver);\n    event REFUND( uint256 index, address bettor, uint256 amount, bytes1 challenges, uint256 answerBlockNumver);\n    \n    constructor() public {\n        owner = payable(msg.sender);\n    }\n\n    function getPot() public view returns (uint256 pot) {\n        return _pot;\n    }\n    \n    function betAndDistribute(bytes1 challenges) public payable returns(bool result){\n        bet(challenges);\n        Distribute();\n        return true;\n    }\n\n    /**\n     * @dev 배팅을 한다. 유저는 0.005이더를 보내고 배팅용 1byte 글자를 보낸다.\n     * 큐에 저장된 배팅정보는 이후 distribute 함수에서 해결한다.\n     * @param challenges 유저가 배팅하는 글자\n     */\n    function bet(bytes1 challenges) public payable returns (bool result) {\n        // 이더가 보내졌는지 확인\n        require(msg.value == BET_AMOUNT, \"not enough ETH\");\n\n        // 큐에 베팅 정보를 넣음\n        require(pushBet(challenges), \"Fail to add New Bet Info\");\n\n        // 이벤트 로그를 찍고 true를 리턴\n        emit BET( _tail - 1, msg.sender, msg.value, challenges, block.number + BET_BLOCK_INTERVAL );\n        \n        return true;\n    }\n\n    /**\n     * @dev 배팅 결과값을 확인하고 팟머니를 분배한다.\n     * 정답실패 : 팟머니 축척, 정답맞춤 : 팟머니 획득, 한글자 맞춤 or 정답 확인 불가 : 배팅금액\n     */\n    function Distribute() public {\n        uint256 cur;\n        uint256 transferAmount;\n\n        BetInfo memory b;\n        BlockStatus currentBlockStatus;\n        for (cur = _head; cur < _tail; cur++) {\n            b = _bets[cur];\n            currentBlockStatus = getBlockStatus(b.answerBlockNumber);\n            BettingResult currentBettingResult;\n\n            // checkable : block.number > answerBlockNumber && block.number < BLOCK_LIMIT + answerBlockNumber\n            if (currentBlockStatus == BlockStatus.Checkable) {\n                bytes32 answerBlockHash = getAnswerBlockHash(b.answerBlockNumber);\n                currentBettingResult = isMatch(b.challenges, answerBlockHash);\n                // if win, bettor get potmoney\n                if(currentBettingResult == BettingResult.Win){\n                    //transfer pot money\n                    transferAmount = transferAfterPayingFee(b.bettor, _pot + BET_AMOUNT);\n                    // 현재 pot = 0\n                    _pot = 0;\n                    emit WIN( cur, b.bettor, transferAmount, b.challenges, answerBlockHash[0], b.answerBlockNumber);\n                    //\n                }\n                // if fail, bettor go to potmone\n                if(currentBettingResult == BettingResult.Fail){\n                    // pot = pot + BET_AMOUNT\n                    _pot += BET_AMOUNT;\n                    emit FAIL( cur, b.bettor, 0, b.challenges, answerBlockHash[0], b.answerBlockNumber);\n                }\n                \n                // if draw, bettor refund\n                if(currentBettingResult == BettingResult.Draw){\n                    // transfer only bet amount\n                    transferAmount = transferAfterPayingFee(b.bettor, BET_AMOUNT);\n                    // emit DRAW\n                    emit DRAW( cur, b.bettor, transferAmount, b.challenges, answerBlockHash[0], b.answerBlockNumber);\n                }\n                \n            }\n            // block check가 불가능한 상태(not rebuilded) : block.number <= answerBlockNumber\n            if (currentBlockStatus == BlockStatus.NotRevealed) {\n                break;\n            }\n            // block limit passed : block.number >= answerBlockNumber + BLOCK_LIMIT\n            if (currentBlockStatus == BlockStatus.BlockLimitPassed) {\n                // 환불\n                transferAmount = transferAfterPayingFee(b.bettor, BET_AMOUNT);\n                // emit refund\n                emit REFUND(cur, b.bettor, transferAmount, b.challenges, b.answerBlockNumber);\n            }\n            popBet(cur);\n        }\n        _head = cur;\n    }\n\n    // 수수료 함수\n    function transferAfterPayingFee(address payable addr, uint256 amount) internal returns(uint256){\n       \n       // 수수료\n        uint256 fee = 0;\n        uint256 amountWithoutFee = amount - fee;\n\n        // transfer to address\n        addr.transfer(amountWithoutFee);\n\n        // transfer to owner\n        owner.transfer(fee);\n\n        // 스마트에서 이더를 전송하는 방법 : call, send, transfer (가장 많이 사용함)\n        // transfer : 이더를 전송하는데 실패하면 트랜잭션 자체를 fail시킨다.\n        // call : 다른 스마트 컨트랙트의 특정 함수를 호출하고 그때 같이 이더를 보낼 수 있다. 외부에 있는 스마트컨트랙트를 사용하며 돈을 전송하면 굉장히 위험하다.\n        // send : 트랜잭션이 실패했을때 처리하는 부분을 내가 생각해야 한다.\n\n        return amountWithoutFee;\n    }\n\n    function setAnswerForTest (bytes32 answer) public returns(bool result){\n        require(msg.sender == owner,\"Only owner can set the answer of test mode\");\n        answerForTest = answer;\n        return true;\n    }\n    function getAnswerBlockHash (uint256 answerBlockNumber) internal view returns (bytes32 answer){\n        return _mode ? blockhash(answerBlockNumber) : answerForTest;\n    }\n\n    /**\n     * @dev 매칭 글자와 정답을 확인한다.\n     * @param challenges 배팅 글자\n     * @param answer 블럭 해쉬\n     * @return 정답 결과\n     */\n    function isMatch(bytes1 challenges, bytes32 answer) public pure returns (BettingResult) {\n        bytes1 c1 = challenges;\n        bytes1 c2 = challenges;\n\n        bytes1 a1 = answer[0];\n        bytes1 a2 = answer[0];\n\n        // get first num\n        c1 = c1 >> 4;\n        c1 = c1 << 4;\n\n        a1 = a1 >> 4;\n        a1 = a1 << 4;\n\n        // get second num\n        c2 = c2 << 4;\n        c2 = c2 >> 4;\n\n        a2 = a2 << 4;\n        a2 = a2 >> 4;\n\n        if( a1 == c1 && a2 == c2 ){\n            return BettingResult.Win;\n        }\n        if (a1 == c1 || a2 == c2 ){\n            return BettingResult.Draw;\n        }\n        return BettingResult.Fail;\n    }\n\n    function getBlockStatus(uint256 answerBlockNumber) internal view returns (BlockStatus) {\n        if (\n            block.number > answerBlockNumber &&\n            block.number < BLOCK_LIMIT + answerBlockNumber\n        ) {\n            return BlockStatus.Checkable;\n        }\n\n        if (block.number <= answerBlockNumber) {\n            return BlockStatus.NotRevealed;\n        }\n\n        if (block.number >= answerBlockNumber + BLOCK_LIMIT) {\n            return BlockStatus.BlockLimitPassed;\n        }\n\n        return BlockStatus.BlockLimitPassed;\n    }\n\n    function getBetInfo(uint256 index) public view returns ( uint256 answerBlockNumber, address bettor, bytes1 challenges ) {\n        BetInfo memory b = _bets[index];\n        answerBlockNumber = b.answerBlockNumber;\n        bettor = b.bettor;\n        challenges = b.challenges;\n    }\n\n    function pushBet(bytes1 challenges) internal returns (bool) {\n        BetInfo memory b;\n        b.bettor = payable(msg.sender); // 20btyes\n        b.answerBlockNumber = block.number + BET_BLOCK_INTERVAL; // 32bytes = 20000가스\n        b.challenges = challenges; //btyes1\n        // bettor + challenges == 20000gas\n\n        _bets[_tail] = b;\n        _tail++;\n        // 32bytes변화 : 20000gas = 첫번째 컨트렉트 제외하고는 5000gas가 소모됨.\n\n        return true;\n    }\n\n    function popBet(uint256 index) internal returns (bool) {\n        delete _bets[index]; // map의 값을 지우면 gas를 돌려받게 된다.\n        return true;\n    }\n}\n",
  "sourcePath": "/Users/heoyumyeong/lottery/lottery-smart-contract/contracts/Lottery.sol",
  "compiler": {
    "name": "solc",
    "version": "0.6.0+commit.26b70077.Emscripten.clang"
  },
  "schemaVersion": "3.4.3",
  "updatedAt": "2021-10-29T00:39:18.452Z",
  "networkType": "ethereum",
  "devdoc": {
    "methods": {
      "Distribute()": {
        "details": "배팅 결과값을 확인하고 팟머니를 분배한다. 정답실패 : 팟머니 축척, 정답맞춤 : 팟머니 획득, 한글자 맞춤 or 정답 확인 불가 : 배팅금액"
      },
      "bet(bytes1)": {
        "details": "배팅을 한다. 유저는 0.005이더를 보내고 배팅용 1byte 글자를 보낸다. 큐에 저장된 배팅정보는 이후 distribute 함수에서 해결한다.",
        "params": {
          "challenges": "유저가 배팅하는 글자"
        }
      },
      "isMatch(bytes1,bytes32)": {
        "details": "매칭 글자와 정답을 확인한다.",
        "params": {
          "answer": "블럭 해쉬",
          "challenges": "배팅 글자"
        },
        "returns": {
          "_0": "정답 결과"
        }
      }
    }
  },
  "userdoc": {
    "methods": {}
  }
}